:020000040800F2
:10000000380C00209D0100083B2F0008332F00080A
:10001000372F00081D080008B14300080000000049
:10002000000000000000000000000000513F000838
:10003000E309000800000000752F00084140000897
:10004000B7010008B7010008B7010008B7010008B0
:10005000B7010008B7010008B7010008B7010008A0
:10006000B7010008B7010008B7010008B701000890
:10007000B7010008B7010008B7010008B701000880
:10008000B7010008B7010008B7010008B701000870
:10009000B7010008B7010008B7010008B701000860
:1000A000B7010008B7010008B7010008B701000850
:1000B000B7010008B7010008B7010008B701000840
:1000C000B7010008B7010008B7010008B701000830
:1000D000B7010008B7010008B7010008B701000820
:1000E000B7010008B7010008B7010008B701000810
:1000F000B7010008B7010008B7010008B701000800
:10010000B7010008B7010008B7010008B7010008EF
:10011000B7010008B7010008B7010008B7010008DF
:10012000B7010008B7010008B7010008B7010008CF
:10013000B7010008B7010008B7010008B7010008BF
:10014000B7010008B7010008B7010008B7010008AF
:10015000B7010008B7010008B7010008B70100089F
:10016000B7010008B7010008B7010008B70100088F
:10017000B7010008B7010008B7010008B70100087F
:10018000B7010008B7010008DFF80CD000F07AF8DA
:1001900000480047A1540008380C0020064880475A
:1001A00006480047FEE7FEE7FEE7FEE7FEE7FEE75C
:1001B000FEE7FEE7FEE7FEE7D940000889010008F8
:1001C0002DE9F05F0546002092469B46884606468C
:1001D000814640241BE0284641464746224600F01F
:1001E00041F853465A46C01A914110D31146184659
:1001F000224600F028F82D1A67EB01084F462246E8
:100200000120002100F01FF817EB00094E41201ECD
:10021000A4F10104DFDC484631462A464346BDE8E6
:10022000F09FD2B201E000F8012B491EFBD27047CB
:100230000022F6E710B513460A4604461946FFF7B2
:10024000F0FF204610BD202A04DB203A00FA02F11C
:10025000002070479140C2F1200320FA03F31943B4
:1002600090407047202A04DB203A21FA02F0002156
:10027000704721FA02F3D040C2F1200291400843B6
:1002800019467047064C074D06E0E06840F0010350
:1002900094E8070098471034AC42F6D3FFF778FF94
:1002A000E45C0008045D000810B5194802F0B4FAD7
:1002B00000F08CF81748006840F4006015490860A9
:1002C0000846006820F4006008600020104981F8AA
:1002D000340008638863486400210D488164C16468
:1002E000016541658165C165016600200849486670
:1002F000002107488166C1660167002004494867FC
:10030000002103488167C167C0F88010002010BD3C
:10031000F00600202438024010B500F045FE10BD64
:1003200010B504462146024802F087FB10BD0000CC
:10033000F006002010B5094802F092FB0446042C98
:1003400001D1002010BD052C03D0062C01D0072CB4
:1003500001D10120F6E70220F4E70000F0060020BA
:1003600010B500F031F8012801D0022010BD14486A
:100370001449086000204860002112488160C16073
:1003800001614FF48041416100218161002413E04B
:1003900000F01CF800F066F80A4802F075FB00B1A6
:1003A00008E04FF40061074802F0E2F900B101E013
:1003B0000020DBE7601CC4B2052CE9DB0120D5E797
:1003C000002C0140F00600200120704700B587B0E6
:1003D000142102A8FFF72CFF1F48006820F40060DA
:1003E0001D49086000BF002001901B4814380068B8
:1003F00040F004001849143908600846006800F00D
:100400000400019000BF00BF00BF0020019008461B
:10041000006840F0080008600846006800F0080026
:10042000019000BF00BF03200390002004900590BE
:1004300006904FF4F850029002A9084801F016FB0C
:100440000420029002A9064801F010FB312001F0BF
:10045000C7FC07B000BD000044380240000802405D
:10046000000C024000B587B0142102A8FFF7E0FE9F
:1004700000BF002001902E48006840F400602C4925
:1004800008600846006800F40060019000BF00BFEB
:1004900000BF0020019026481438006840F4800016
:1004A0002349143908600846006800F48000019070
:1004B00000BF00BF00BF002001900846006840F068
:1004C000040008600846006800F00400019000BFC6
:1004D00000BF00BF002001900846006840F00800FF
:1004E00008600846006800F00800019000BF00BFE7
:1004F0000220039001200490032005900C20069018
:100500004FF4F850029002A90A4801F0AFFA042013
:10051000029002A9084801F0A9FA00220121312025
:1005200001F079FC312001F069FC07B000BD00004A
:100530004438024000080240000C02402DE9F0411E
:1005400004460D461646002700200A49086408465E
:1005500003F03AF9074637B933462A46214605489B
:1005600002F0F2FA074617B10120BDE8F081002041
:10057000FBE70000F00600200120014908607047F9
:10058000200000202DE9F04104460D4616460027C4
:1005900000200A49C863084603F044F9074637B902
:1005A00033462A462146054802F068FB074617B144
:1005B0000120BDE8F0810020FBE70000F0060020EC
:1005C00005480068A0F10050B0F5E03F01D90120D6
:1005D00070470020FCE7000000000808014600BF4B
:1005E0000648008880B200F10060054A801A8842FF
:1005F00001D3002070470220FCE70000227AFF1F91
:100600000000080830B587B005461C216846FFF792
:100610000FFE002414B9002007B030BD0620FBE710
:1006200030B587B0002400200690002501F052F973
:1006300000BF1348008880B200F100601149401AE1
:10064000440AB4F5807F12D901200290E0B20490F0
:100650000498C0F58070039000200190022005905E
:1006600006A901A801F08AF805464FF4807401F04C
:10067000DBF815B9002007B030BD0420FBE700000F
:10068000227AFF1F0000080810B5034803490860DC
:1006900001F020F9002010BD00000808080000202B
:1006A00010B501F0C1F8002010BD000070B504467F
:1006B0000D4600BF1848008880B200F1006008387D
:1006C00016490968884204D31448006814498842CE
:1006D00003D201F0A9F8052070BD22462B460F4831
:1006E0000168032001F0AAF880B90C48016803C929
:1006F00060406940084303D001F096F80520EBE71D
:100700000648006808300549086003E001F08CF8ED
:100710000520E1E70020DFE7227AFF1F0800002024
:100720000000080810B588B01C2101A8FFF780FD63
:100730000024204608B010BD08B500BF002000907E
:100740000A48006840F4804008490860084600688C
:1007500000F48040009000BF00BF01F0BBF8F32020
:100760000349086001F060F8002008BD44380240E9
:100770000C3C024070B50B484468254601F09AFCD9
:1007800000F0C6FF00204FF0E02108614861886159
:100790000448054908600146086880F3088800BFDE
:1007A000A84770BD0000080808ED00E008B518482B
:1007B0004468254601F07EFC00F0AAFF00204FF0BF
:1007C000E02108614861886100BF0090114800681D
:1007D00040F480400F4908600846006800F48040FB
:1007E000009000BF00BF00BF0B48006820F003006E
:1007F000094908600846006840F00100086000BF31
:100800000349086880F3088800BFA84700BFFEE7D7
:100810000000FF1F443802400038014000BFFEE7DF
:1008200010B586B0284C00BF002000902748006813
:1008300040F00800254908600846006800F00800FC
:10084000009000BF00BF00BF002000901F48103084
:10085000006840F400301D49103108600846006807
:1008600000F40030009000BF00BF19482060002055
:1008700084F83D004FF4612060600021E160A160D8
:1008800021610C216161204602F0BAFA202001901A
:10089000022002900490072005900120039001A9F6
:1008A0000C4801F0E3F84020019012200290022051
:1008B0000490072005900120039001A9054801F04C
:1008C000D5F806B010BD0000AC060020303802405C
:1008D00000440040000C02400146087810381823FC
:1008E000B0FBF3F20848805CC865032A05D90868A4
:1008F0006FF30900001D886503E008686FF30900C5
:100900008865886D70470000B05C000801460020D3
:100910008A6A8B69CBB932B1012A0DD0022A03D081
:10092000032A10D10EE000BFCB6A03F08073B3F14D
:10093000807F00D1012007E0CB6AB3F1C07F00D1F6
:10094000012001E000E000BF34E08B69B3F5005FF7
:100950001AD132B1012A07D0022A03D0032A11D1B9
:100960000AE000BF01200EE0CB6A03F08073B3F110
:10097000807F00D1012006E0CB6AB3F1C07F00D1B7
:10098000012000E000BF15E032B1012A05D0022AA3
:1009900004D0032A0CD103E000BF00BF012008E00F
:1009A000CB6A03F08073B3F1807F00D1012000E0B7
:1009B00000BF00BF704730B50468246824F4802469
:1009C00005682C60046863608468402C04D1046866
:1009D000A2600468E16003E00468A1600468E2606A
:1009E00030BD70472DE9F0418EB028216846FFF7F1
:1009F0001FFCFFF797FE00F0010000283AD0B9A0D5
:100A000004F0FEFEC3A004F0FBFE01221021CE483C
:100A100001F03DF9002618E02021CB4801F02EF925
:100A2000322000F097FE4FF48071C74801F01EF9A4
:100A300008B9012000E0002028B1C4A004F0E0FEC5
:100A40000020FFF7DFFD701CC6B2642EE4DB00223D
:100A50001021BD4801F01BF900222021BA4801F005
:100A600016F9C9A004F0CCFED6A004F0C9FE0EB061
:100A7000BDE8F08103F00EF818B1D7A004F0C0FE75
:100A8000F5E70122DC49DD4804F016F904465CB1C3
:100A9000DBA004F0B5FE2246E0A1684603F09AFC14
:100AA000684604F0ADFEE2E7E2A004F0A9FE0122F0
:100AB000E3A1E64804F02EF9044684B1E4A004F072
:100AC0009FFE2246D5A1684603F084FC684604F0E8
:100AD00097FE02F03FFFE4A004F092FEC7E7E5A016
:100AE00004F08EFED949C868FFF778FD58B1E7A039
:100AF00004F086FED54804F0D3F802F02BFFDAA00C
:100B000004F07EFEB3E7EAA004F07AFEFFF714FEDD
:100B1000EBA004F075FE012220218B4801F0B7F80C
:100B2000FFF77EFD00222021874801F0B0F8E9A000
:100B300004F066FE4FF48071834801F097F808B91D
:100B4000012000E0002058B1E8A004F059FEBF48A1
:100B500004F0A6F802F0FEFEC3A004F051FE86E702
:100B6000E8A004F04DFE01222021774801F08FF823
:100B70000025FFF789FD00BF4FF0FF310A910B916F
:100B80000CAB08220AA9B14804F007F904460C98F6
:100B900010B3DDE90A01FFF789FD07460FB96D1CA7
:100BA0001AE0EA00DDA1684603F014FC684604F090
:100BB00027FEA64804F074F802F0CCFEAAA004F0C8
:100BC0001FFE00224021604801F061F80022202130
:100BD0005D4801F05CF84AE7E8B218B940215A488C
:100BE00001F04CF814B90C980028C5D1FFF758FD56
:100BF000964804F055F800224021534801F047F888
:100C000000222021504801F042F8CCA004F0F8FD69
:100C1000EA00D0A1684603F0DDFB684604F0F0FD71
:100C2000012287A1894804F075F8044684B188A0A0
:100C300004F0E6FD224679A1684603F0CBFB684646
:100C400004F0DEFD02F086FE87A004F0D9FD0EE779
:100C5000DFF81483002500BF4FF0FF310A910B919C
:100C60000CAB04220AA9794804F097F804460C98C2
:100C7000F0B1D8F800100A98814203D108F10408B5
:100C80006D1C15E0AA00B9A1684603F0A3FB6846F5
:100C900004F0B6FD6D4804F003F802F05BFE72A0AC
:100CA00004F0AEFD00224021274800F0F0FFDEE610
:100CB000E8B218B94021244800F0E0FF14B90C98BC
:100CC0000028C9D1B2A004F09BFD002240211E489B
:100CD00000F0DDFF02F03EFE63A004F091FD00BFD6
:100CE000C5E600004170706C69636174696F6E20C5
:100CF000737061636520696E20666C61736820693A
:100D0000732077726974652070726F74656374659F
:100D1000642E0000507265737320627574746F6E78
:100D200020746F2064697361626C6520666C617306
:100D3000682077726974652070726F746563746976
:100D40006F6E2E2E2E000000000402404469736175
:100D5000626C696E672077726974652070726F7457
:100D6000656374696F6E20616E642067656E65727D
:100D70006174696E672073797374656D2072657331
:100D800065742E2E2E000000427574746F6E2077ED
:100D90006173206E6F7420707265737365642C20AC
:100DA00077726974652070726F74656374696F6EB1
:100DB000206973207374696C6C2061637469766553
:100DC0002E00000045786974696E6720426F6F7469
:100DD0006C6F616465722E005344206361726420FD
:100DE00063616E6E6F7420626520696E69746961FB
:100DF0006C697A65642E0000150000205C020020FA
:100E0000534420636172642063616E6E6F7420626C
:100E100065206D6F756E7465642E000046617446C2
:100E200073206572726F7220636F64653A20257556
:100E3000000000005344206D6F756E7465642E00D1
:100E4000557067726164652E62696E0088040020C7
:100E500046696C652063616E6E6F74206265206FF9
:100E600070656E65642E0000534420656A65637486
:100E700065642E00536F66747761726520666F75C6
:100E80006E64206F6E2053442E0000004572726F16
:100E9000723A20617070206F6E205344206361723B
:100EA0006420697320746F6F206C617267652E0017
:100EB0004170702073697A65204F4B2E000000004E
:100EC00045726173696E6720666C6173682E2E2EA1
:100ED00000000000466C61736820657261736520D4
:100EE00066696E69736865642E00000050726F67F2
:100EF00072616D6D696E6720736B69707065642EC9
:100F0000000000005374617274696E672070726F24
:100F10006772616D6D696E672E2E2E0050726F675D
:100F200072616D6D696E67206572726F7220617497
:100F30003A20256C752062797465000050726F67E5
:100F400072616D6D696E672066696E69736865644C
:100F50002E000000466C61736865643A20256C754C
:100F60002062797465732E00000008085665726966
:100F70006669636174696F6E206572726F72206159
:100F8000743A20256C7520627974652E000000008B
:100F9000566572696669636174696F6E207061730A
:100FA0007365642E0000000007E01021034800F084
:100FB00065FE4FF4FA7000F0CDFBF6E70004024046
:100FC00010B5024800F042F810BD000015000020E6
:100FD00010B50249024800F005F810BD15000020C8
:100FE000B85C000830B504460D460022294620466C
:100FF00000F002F830BD0000F0B5034601250024E2
:101000001148407A01281CDA00200F4E767A0E4FE4
:10101000B8553846467A001D40F82630001F467AFB
:10102000083082553E46707A461C7E72044604F1B2
:10103000300008703A2048702F2088700020C87057
:1010400000252846F0BD00003002002010B50446FF
:101050000021204600F002F810BD000030B5024625
:101060000B46002101200D4C647A012C14DB14780E
:10107000303CE1B2094C241D54F8214064B10025F4
:10108000064C241D44F82150241D6554083C647A04
:10109000641E024D6C72002030BD00003002002042
:1010A00010B5002201B909E0012901D10A0205E0C9
:1010B000022901D10A0201E04FF440720E4B1B6875
:1010C00023F440730C4C236023461B6813432360B6
:1010D00023461B6823F0F803236023461B68022481
:1010E00044EAC0042343044C236023461B6843F4B2
:1010F0008033236010BD0000103C02401C48006893
:1011000000F40070B0B11A48006820F4007018496B
:10111000086000BF0846006840F4006008600846A8
:10112000006820F40060086000BF0846006840F4D2
:10113000007008600E48006800F48060B0B10C4890
:10114000006820F480600A49086000BF0846006813
:1011500040F4805008600846006820F48050086021
:1011600000BF0846006840F48060086070470000D7
:10117000003C02400A4A126822F44072084B1A608E
:101180001A46126842F004021A601A4612684FF4B6
:10119000803343EA00231A43014B1A607047000072
:1011A000103C0240074A126822F44072054B1A6054
:1011B0001A4612681A601A46126842F001021A6052
:1011C00001707047103C024010B50949096821F4CC
:1011D0004071074C21602146096841F4407121604B
:1011E0002146096841F0010121600260436010BDA1
:1011F000103C0240084A126822F44072064B1A6002
:101200001A46126842F480721A601A46126842F056
:1012100001021A6001807047103C0240084A1268BF
:1012200022F44072064B1A601A46126842F40072A9
:101230001A601A46126842F001021A600160704793
:10124000103C02402348006800F0100040B12248E2
:10125000C06940F010002049C86110201D49086095
:101260001C48006800F0200040B11B48C06940F0F5
:1012700008001949C861202016490860154800680F
:1012800000F0400040B11448C06940F00400124929
:10129000C86140200F4908600E48006800F08000D7
:1012A00040B10D48C06940F002000B49C861802080
:1012B000084908600748006800F0020040B106488D
:1012C000C06940F020000449C8610220014908605B
:1012D000704700000C3C02403C02002070B5044600
:1012E000002500201449C86100F0D8FC054609E03B
:1012F000601C38B124B100F0D1FC401BA04201D9E0
:10130000032070BD0D48006800F480300028EFD144
:101310000A48006800F0010010B101200749086088
:101320000648006800F0F20018B1FFF78BFF0120BB
:10133000E7E70020E5E700003C0200200C3C02400B
:1013400010B54FF480710F4800F0DEFA40210D48CF
:1013500000F0DAFA20210B4800F0D6FA10210948F3
:1013600000F0D2FA8021084800F0CEFA0748006861
:1013700020F00200054908600846006820F00400DB
:10138000086010BD000402400008024030380240EE
:1013900000B587B000BF002001903048006840F0E1
:1013A00002002E4908600846006800F00200019023
:1013B00000BF00BF00BF002001900846006840F059
:1013C000040008600846006800F00400019000BFB7
:1013D00000BF00224021224800F059FC00222021B9
:1013E0001F4800F054FC002210211D4800F04FFC63
:1013F000012280211B4800F04AFC012003900020BC
:10140000049005904020029002A9154800F02EFBA0
:101410002020029002A9124800F028FB1020029020
:1014200002A90F4800F022FB8020029001200390C7
:1014300000200490059002A90A4800F017FB4FF421
:1014400080700290002003900120049000200590FD
:1014500002A9034800F00AFB07B000BD3038024083
:10146000000402400008024070B50446A56D00F07B
:1014700015FC064694F83500022808D080206065E7
:1014800000BF002084F8340000BF012070BD206838
:10149000006820F01600216808602068406920F08C
:1014A000800021684861206C08B9A06C28B12068D0
:1014B000006820F00800216808602068006820F0BB
:1014C0000100216808600FE000F0E8FB801B0528A0
:1014D0000AD92020606500BF002084F8340000BFD6
:1014E000032084F83500D1E72068006800F001008F
:1014F0000028E9D194F85C103F208840A86000BF24
:10150000002084F8340000BF012084F8350000205A
:10151000BCE770B504460CB9012070BD94F83500E5
:10152000022800D1F9E72068006820F00100216856
:101530000860002021680860216848602168886090
:101540002168C8602168086121202168486120461F
:10155000FFF7C2F905460020E06320646064A064E0
:10156000E064206594F85C103F208840A86000206B
:10157000606584F8350000BF84F8340000BF00BF08
:10158000CBE700002DE9F0410446002500F086FB82
:10159000074614B90120BDE8F081606A00B100BFC0
:1015A00000BF002084F8340000BF022084F835001A
:1015B0002068006820F00100216808600AE000F05F
:1015C0006DFBC01B052805D920206065032084F829
:1015D0003500E0E72068006800F001000028EED147
:1015E0002068056821480540D4E901010843E16805
:1015F00008432169084361690843A1690843E16917
:101600000843216A08430543606A042803D1D4E9EA
:101610000B0108430543206805602068456925F0F3
:101620000705606A0543606A04280DD1A06A054376
:10163000E06A48B12046FFF769F928B140206065AB
:10164000012084F83500A6E7206845612046FFF7B1
:1016500043F9064694F85C103F208840B0600020B3
:101660006065012084F83500002094E73F8010F089
:101670002DE9F04704460D4616461F464FF0000878
:10168000D4F8589000BF94F83400012802D1022009
:10169000BDE8F087012084F8340000BF94F83500DD
:1016A00001282BD1022084F83500002060653B46DC
:1016B000324629462046FFF77EF994F85C103F2019
:1016C0008840C9F808002068006840F016002168CA
:1016D00008602068406940F0800021684861206C03
:1016E00028B12068006840F0080021680860206880
:1016F000006840F001002168086006E000BF00209B
:1017000084F8340000BF4FF002084046C0E70000F4
:1017100010B54FF0FF300E49086000200860401EF1
:10172000091D086000200860401E09491039086042
:1017300000200860401E091D086000200860401E4F
:10174000091D08600020086000F0F8FA002010BDB4
:101750002038024070B5044600F0A0FA064625463F
:10176000681C10B104480078054400BF00F096FAE8
:10177000801BA842FAD370BD140000202DE9F0416F
:1017800004460E460127002500BF2548007E01289B
:1017900002D10220BDE8F08101202149087600BF76
:1017A0004CF25030FFF79AFD0746002F31D1401E12
:1017B0003060206801280FD1207C6168FFF7DAFCD7
:1017C0004CF25030FFF78AFD07461648006820F0BB
:1017D0000400144908601AE0A56812E0217C28463C
:1017E000FFF75EFC4CF25030FFF778FD07460D48DE
:1017F000006820F0FA000B4908600FB1356005E081
:101800006D1CD4E902100844A842E7D800BFFFF7D6
:1018100075FC00BF00200249087600BF3846B9E7D2
:101820003C020020103C02400348006840F00040A9
:101830000149086000207047103C02402DE9F0414A
:1018400006460F4614461D464FF0010800BF1F48CC
:10185000007E012802D10220BDE8F08101201B4951
:10186000087600BF4CF25030FFF738FD8046B8F1E3
:10187000000F23D126B9E1B23846FFF793FC12E0FE
:10188000012E04D1A1B23846FFF7B4FC0BE0022EC2
:1018900004D121463846FFF7C1FC04E022462B461E
:1018A0003846FFF791FC4CF25030FFF717FD8046A9
:1018B0000748006820F001000549086000BF0020CB
:1018C0000249087600BF4046C6E700003C020020FF
:1018D000103C024000200949096801F0004159B15B
:1018E0000749064A0C3A1160064911600349096824
:1018F00001F0004101B1012070470000103C02409E
:1019000023016745AB89EFCDF0B50C4600250022D9
:101910000023002192E0012606FA01F504EA0502FF
:10192000AA427DD1474E8F0856F827308E07370FD1
:101930000F26BE403340444EB04201D1002623E082
:10194000424EB04201D101261EE0414EB04201D1CB
:10195000022619E03F4EB04201D1032614E03E4E6C
:10196000B04201D104260FE03C4EB04201D1052621
:101970000AE03B4EB04201D1062605E0394EB042A6
:1019800001D1072600E008268F073F0FBE409E4288
:1019900022D18E07370F0F2606FA07F3294E8F083C
:1019A00056F827609E43274F4FEA910C47F82C606A
:1019B0002D4E366896432C4F3E603E1D366896434A
:1019C0003F1D3E603E1D366896433F1D3E603E1DF6
:1019D000366896433F1D3E6006684FEA410C032778
:1019E00007FA0CF7BE430660CF0800F1200656F850
:1019F00027604F074FEAD76C0F2707FA0CF7BE4353
:101A00004FEAD10C00F1200747F82C6086684FEAB6
:101A1000410C032707FA0CF7BE438660476800E0D5
:101A20000BE001268E40B7434760C6684FEA410C81
:101A3000032707FA0CF7BE43C660491C1029FFF4C0
:101A40006AAFF0BD083801400000024000040240C7
:101A500000080240000C0240001002400014024046
:101A600000180240001C0240003C0140F8B502464C
:101A70000B460025002400200021DCE0012606FAA8
:101A800001F51E6806EA0504AC4273D15E68022EB9
:101A900002D05E68122E13D1CF0802F1200656F84C
:101AA00027004E07F70E0F26BE40B0434F07FF0E2C
:101AB0001E69BE403043CF0802F1200646F82700D9
:101AC00010684F000326BE40B0431E7906F003069F
:101AD0004F00BE40304310605E68012E08D05E6843
:101AE000022E05D05E68112E02D05E68122E13D130
:101AF00090684F000326BE40B0434F00DE68BE40F2
:101B000030439060506801268E40B0431E79C6F382
:101B100000168E4030435060D0684F000326BE4010
:101B2000B0434F009E68BE403043D0605E6806F010
:101B30008056B6F1805F7DD100BF00260096404EF2
:101B4000366846F480463E4F3E603E46366806F4B0
:101B50008046009600BF00BF3A4E8F0856F8270017
:101B60008E07370F0F26BE40B043374EB24202D128
:101B7000002624E05EE0354EB24201D101261EE08F
:101B8000334EB24201D1022619E0324EB24201D1A7
:101B9000032614E0304EB24201D104260FE02F4E4E
:101BA000B24201D105260AE02D4EB24201D10626ED
:101BB00005E02C4EB24201D1072600E008268F072F
:101BC0003F0FBE4030431F4E8F0846F82700264E79
:101BD0003068A0435E6806F48036B6F5803F00D1D9
:101BE0002043214E3060361D3068A0435E6806F405
:101BF0000036B6F5003F00D120431B4E361D306045
:101C0000361D3068A0435E6806F48016B6F5801F66
:101C100000D12043144E08363060361D3068A04392
:101C20005E6806F40016B6F5001F00D120430E4E84
:101C30000C363060491C1029FFF420AFF8BD0000BD
:101C400044380240083801400000024000040240CD
:101C500000080240000C0240001002400014024044
:101C600000180240001C0240003C0140024613697B
:101C70000B400BB1012000E00020704742690A4090
:101C80008A4202D10A04826100E0816170470AB190
:101C9000816101E00B048361704700000148006826
:101CA000704700000C0000200348006803490978D1
:101CB00008440149086070470C000020140000200F
:101CC00010B50A48006840F40070084908600846EA
:101CD000006840F480600860032000F0DBF80F200B
:101CE00000F006F800F02CF8002010BD003C024087
:101CF00070B504460E4800784FF47A71B1FBF0F0ED
:101D00000C490968B1FBF0F5284601F05FF808B10D
:101D1000012070BD102C07D200222146501E00F079
:101D20007AF80548046001E00120F2E70020F0E7BE
:101D30001400002028000020100000207047000040
:101D400008B502F081F900BF002000902348006828
:101D500040F48040214908600846006800F4804053
:101D6000009000BF00BF00BF00200090081F006867
:101D700040F08050091F08600846006800F080505D
:101D8000009000BF00BF032000F084F8002211463D
:101D90006FF00B0000F03FF8002211466FF00A00D0
:101DA00000F039F8002211466FF0090000F033F816
:101DB00000221146501F00F02EF800221146101F7D
:101DC00000F029F800221146901E00F024F80022AD
:101DD0001146501E00F01FF808BD000044380240B4
:101DE00000BF00F01F0201219140034A430942F85D
:101DF000231000BF7047000080E100E000BF00F04A
:101E00001F02012191404209920002F1E022C2F832
:101E1000001100BF70472DE9F05F80460D46164661
:101E2000002701F08BF8074639462A46334601F071
:101E30000700C0F1070ABAF1040F02D94FF0040AF3
:101E400001E0C0F1070AD14600F1040ABAF1070F18
:101E500002D24FF0000A01E0A0F1030AD4464FF08D
:101E6000010A0AFA09FAAAF1010A0AEA020A0AFAB6
:101E70000CFA4FF0010B0BFA0CFBABF1010B0BEA68
:101E8000030B4AEA0B042146404601F05FF8BDE827
:101E9000F09F000000BF00F00702064B19684FF6E4
:101EA000FF031940044B0B4343EA0221014B196025
:101EB00000BF70470CED00E00000FA0538B504469D
:101EC000002500BF002000901848006840F08050B6
:101ED000164908600846006800F08050009000BF76
:101EE00000BF00BF002000901148006820F480402F
:101EF00020430F4908600846006800F480400090C5
:101F000000BF00BFFFF7CAFE054607E0FFF7C6FEA9
:101F1000401BB0F57A7F01D9032038BD04484068E2
:101F2000C0F380300028F1D00020F6E740380240AE
:101F30000070004070B504460D460CB9012070BD1C
:101F40005848006800F00F00A84209D255490D70AA
:101F50000846006800F00F00A84201D00120EEE71B
:101F6000207800F0020002281DD1207800F0040043
:101F7000042805D14C48006840F4E0504A49086004
:101F8000207800F00800082805D14748006840F490
:101F90006040454908604448006820F0F000A168AE
:101FA000084341490860207800F00100A8B3606848
:101FB000012807D13C4808380068C0F34040B8B950
:101FC0000120BCE76068022802D06068032807D1BE
:101FD000354808380068C0F3406048B90120AEE7D2
:101FE000314808380068C0F3400008B90120A6E76E
:101FF0002D48006820F00300616808432A49086002
:10200000FFF74CFE064609E0FFF748FE801B41F251
:102010008831884202D9032091E707E0224800680E
:1020200000F00C006168B0EB810FEDD11D48006835
:1020300000F00F00A84209D91A490D70084600683F
:1020400000F00F00A84201D0012078E7207800F0CE
:102050000400042807D11448006820F4E050E16827
:10206000084311490860207800F00800082808D1CA
:102070000D48006820F46040216940EAC1000A4927
:10208000086000F0F9F808490968C1F30311074A2C
:10209000515CC840064908600F20FFF729FE002068
:1020A0004DE70000003C024008380240CC5C0008CC
:1020B0002800002010B5FFF7F1FD044656480068DF
:1020C00040F001005449086006E0FFF7E7FD001BFF
:1020D000022801D9032010BD4F48006800F002001B
:1020E0000028F2D04C48006840F080004A4908605F
:1020F000FFF7D4FD0446002047490831086008E096
:10210000FFF7CCFD001B41F28831884201D9032042
:10211000E1E741480830006800F00C000028EFD1EA
:10212000FFF7BCFD04463C48006820F450203A49C3
:10213000086006E0FFF7B2FD001B642801D9032008
:10214000C9E73548006800F400300028F2D1FFF7F5
:10215000A5FD04463048006820F080702E490860D4
:1021600006E0FFF79BFD001B022801D90320B2E720
:102170002948006800F000700028F2D1FFF78EFDBA
:1021800004462548006820F080602349086006E086
:10219000FFF784FD001B022801D903209BE71E489E
:1021A000006800F000600028F2D11C481A49091D9F
:1021B00008601B4818498431086017480C300068D3
:1021C00020F4F85014490C3108600846006820F4E7
:1021D000005008600846006840F41F000860084688
:1021E000006840F4001008600B487430006820F06C
:1021F00001000949743108600846006840F08070A9
:1022000008600848084908600F20FFF771FD08B111
:10221000012060E700205EE7003802401030000433
:10222000003000200024F40028000020014800684D
:10223000704700002800002000B5FFF7F7FF0449B1
:102240000968C1F38221034A515CC84000BD000007
:1022500008380240DC5C000800B5FFF7E7FF0449DE
:102260000968C1F34231034A515CC84000BD000017
:1022700008380240DC5C00082DE9F0470024002506
:102280000026A1462548006800F00C0020B1042873
:1022900005D008283AD105E0DFF8849039E0DFF86E
:1022A000849036E01D48001F006800F03F041B4882
:1022B000001F006800F4800078B11A481749091F10
:1022C0000968C1F38811A0FB017001462246002372
:1022D0003846FDF775FF05460EE011480F49091F06
:1022E0000968C1F38811A0FB017001462246002352
:1022F0003846FDF765FF05460848001F0068C0F333
:102300000140401C4600B5FBF6F902E0DFF81090F2
:1023100000BF00BF4846BDE8F08700000838024013
:102320000024F40000127A00F8B504460CB901202C
:10233000F8BD207800F00100002874D0F94800684A
:1023400000F00C0004280DD0F648006800F00C00E6
:10235000082813D1F348001F006800F48000B0F58E
:10236000800F0BD1EF4808380068C0F340400028C8
:1023700059D06068002856D10120D9E700BF6068B5
:10238000B0F5803F08D1E7480838006840F4803055
:10239000E449083908601EE06068B0F5A02F0DD14F
:1023A000E0480838006840F48020DE4908390860B9
:1023B0000846006840F4803008600CE0D9480838CE
:1023C000006820F48030D749083908600846006862
:1023D00020F48020086000BF606890B1FFF75EFCC9
:1023E000054606E0FFF75AFC401B642801D903208C
:1023F0009EE7CC4808380068C0F340400028F1D080
:1024000011E0FFF74BFC054606E0FFF747FC401BD9
:10241000642801D903208BE7C24808380068C0F35C
:1024200040400028F1D1207800F0020002285FD15E
:10243000BC48006800F00C0058B1BA48006800F0D1
:102440000C0008281CD1B748001F006800F4800069
:10245000B0B9B44808380068C0F3400020B1E06863
:10246000012801D0012063E7AE480838006820F059
:10247000F800216940EAC100AA490839086037E03C
:10248000E06800B30120A8490860FFF707FC054693
:1024900006E0FFF703FC401B022801D9032047E7B1
:1024A000A04808380068C0F340000028F1D09D48DB
:1024B0000838006820F0F800216940EAC100994915
:1024C0000839086014E0002097490860FFF7E6FB30
:1024D000054606E0FFF7E2FB401B022801D9032076
:1024E00026E7904808380068C0F340000028F1D182
:1024F000207800F0080008282CD16069A8B10120DC
:102500008A490860FFF7CAFB054606E0FFF7C6FBED
:10251000401B022801D903200AE782486C3000687A
:10252000C0F340000028F1D014E000207F4908608B
:10253000FFF7B4FB054606E0FFF7B0FB401B02289F
:1025400001D90320F4E677486C300068C0F34000FE
:102550000028F1D1207800F00400042870D1002672
:1025600070483830006800F0805090B900BF0020FB
:1025700000906C483830006840F08050694938312C
:1025800008600846006800F08050009000BF00BF5F
:1025900001266748006800F48070B0B9644800689C
:1025A00040F4807062490860FFF778FB054606E05A
:1025B000FFF774FB401B022801D90320B8E65C48F2
:1025C000006800F480700028F2D000BFA0680128E5
:1025D00008D154486830006840F001005149683122
:1025E00008601DE0A06805280DD14E4868300068DD
:1025F00040F004004B49683108600846006840F02C
:10260000010008600CE047486830006820F00100D5
:102610004449683108600846006820F004000860FA
:1026200000BFA068A8B1FFF739FB054609E0FFF736
:1026300035FB401B41F28831884202D9032077E6FE
:1026400026E0384868300068C0F340000028EED02B
:1026500013E0FFF723FB054608E0FFF71FFB401BD5
:1026600041F28831884201D9032061E62D48683063
:102670000068C0F340000028EFD1012E07D129489F
:102680003830006820F0805026493831086000BF9B
:10269000A069B8B32348006800F00C0008285ED099
:1026A000A069022846D100201F490866FFF7F6FA04
:1026B000054606E0FFF7F2FA401B022801D9032085
:1026C00036E6184808380068C0F340600028F1D1A9
:1026D000D4E907010843616A40EA81110122A06A36
:1026E000C2EB500041EA00412C20005D41EA00604D
:1026F0000C49091F086001200B490866FFF7CEFA54
:10270000054607E02DE0FFF7C9FA401B022801D972
:1027100003200DE6034808380068C0F34060002835
:10272000F1D01EE00838024000004742800E4742C8
:102730000070004000200C490866FFF7AFFA05461C
:1027400006E0FFF7ABFA401B022801D90320EFE5B2
:1027500006480068C0F340600028F2D101E0012083
:10276000E6E50020E4E500000000474200380240B2
:1027700070B58AB004460D460026032084F8340064
:10278000606C032820D0B5F5805F04D1A06B40F0C9
:102790008050A0631CE0B5F5006F07D1204601F022
:1027A000D7FA0646A06B3043A06311E03DB920463E
:1027B00001F099FA0646A06B3043A06308E0A06BD5
:1027C00040F00060A06303E0A06B40F08050A06385
:1027D000A06B40B140F2FF5021688863012084F86B
:1027E00034000AB070BD60680490A0680590E0688D
:1027F0000690079560690890A069099007A807C826
:102800008DE80700206804A90EC900F0DEFB012056
:1028100084F834000020E4E710B504460CB9012028
:1028200010BD032084F83400204601F0C5F920468D
:1028300000F088F90020A06384F8340000BFEFE7BF
:1028400010B50446FDF768FD10BD30B50346002203
:10285000586E020E90090870C2F38300487002F0AF
:1028600003008870586EC0F30742CA70B3F8640062
:10287000C0F307220A7193F864204A71986E020E21
:102880004FF6FF7000EA0210C880986EC0F307424E
:10289000C88840EA1210C88002F00F000872682051
:1028A000C05AC0F30722D0094872C2F38010887260
:1028B000C2F34010C872C2F30010087300204873BE
:1028C000586C00283ED19007000D08616820C25C5A
:1028D000086940EA82000861D86E020E086940EA81
:1028E00092100861C2F3C200087502F00700487533
:1028F000D86EC0F3074250098875C2F38200C875CC
:102900009007400F08766C20C05AC0F30722087E5B
:1029100040EAD21008760869401C58650C7E586D54
:10292000A41C0125A540684358650C7A0120A040ED
:102930009865D3E91504640A6043D8654FF40074C0
:102940001C6630E0586C012821D16820C25C9006DA
:10295000800A0861D86E020E086940EA0220086108
:10296000D86EC0F307420869104308616C20C05A52
:10297000C0F307220869441C4FF48060A4FB0004E4
:102980005865D8654FF400749C651C660BE040F2F6
:10299000FF501C68A063986B40F080509863012042
:1029A00083F8340030BDC2F3801001F8190F90068F
:1029B000400E48706C20C25C487840EAD2104870E3
:1029C00002F07F008870186F020ED009C870C2F341
:1029D00041100871C2F3820048719007000F88719E
:1029E000186FC0F30742887940EA92108871C2F3E9
:1029F0004010C8710020087202F001004872702077
:102A0000C05AC0F30722D0098872C2F38010C8727E
:102A1000C2F340100873C2F300104873C2F3810080
:102A2000887302F00300C8737020C25C50080874F9
:102A30000120487419390020B4E70246506C086040
:102A4000906C4860D06C8860106DC860506D0861F3
:102A5000906D4861D06D8861106EC861002070472C
:102A6000F8B504460426002500200090694620465B
:102A700001F020F9054615B1A06B2843A06300982A
:102A8000C0F343263046F8BD10B504460CB901200A
:102A900010BD94F8340020B900202077204600F0C3
:102AA00052F8032084F83400204600F009F8002092
:102AB000A0632063012084F834000020E8E70000D0
:102AC00030B589B00446002500200390049005909D
:102AD000069007907620089006A807C88DE80700A2
:102AE000206803A90EC900F070FA0020144908609C
:102AF000206800F088FA01201149A039C1F8A0002F
:102B00000220FEF727FE204601F05DF8054645B19C
:102B1000012084F83400A06B2843A063012009B091
:102B200030BD204600F0CAFF05463DB1012084F8C3
:102B30003400A06B2843A0630120F0E70020EEE7FB
:102B4000A0802542704770472DE9F04186B00446C9
:102B5000884616461D460027B8F1000F07D1A06B26
:102B600040F00060A063012006B0BDE8F08194F859
:102B70003400012874D10020A0637119E06D8142F6
:102B800005D9A06B40F00070A0630120ECE70320A2
:102B900084F8340000202168C8622068C06B40F2CD
:102BA0002A3108432168C8632E48E16BC8632E4868
:102BB000E16BC8640020E16B08656A029308226833
:102BC00002F180014246E06BFEF752FD01202749E9
:102BD0000860606C012800D076024FF0FF30009052
:102BE000680201909020029002200390002004903F
:102BF000012005906946206800F0BDF94FF400718E
:102C0000206800F059FA074657B140F2FF5021689A
:102C10008863A06B3843A063012084F83400A3E7E5
:102C2000012D07D9822020633146206800F0B0FAD8
:102C3000074606E0812020633146206800F0C5FA8F
:102C400007465FB140F2FF5021688863A06B3843AC
:102C5000A063012084F8340086E701E0002083E7C8
:102C6000022081E7E1380008853800088C8525427C
:102C700010B50446FDF780FC10BD00002DE9F041C1
:102C800086B00446884616461D460027B8F1000F58
:102C900007D1A06B40F00060A063012006B0BDE842
:102CA000F08194F83400012873D10020A0637119D9
:102CB000E06D814205D9A06B40F00070A063012057
:102CC000ECE7032084F8340000202168C862206803
:102CD000C06B40F21A2108432168C8632E48216C5A
:102CE000C8632E48216CC8640020216C0865606CA4
:102CF000012800D076024FF40071206800F0DCF962
:102D0000074657B140F2FF5021688863A06B3843F3
:102D1000A063012084F83400C0E7012D07D9A0206A
:102D200020633146206800F035FB074606E090201E
:102D300020633146206800F04AFB074657B140F255
:102D4000FF5021688863A06B3843A063012084F89A
:102D50003400A3E701201249086069028B0821684A
:102D600001F180024146206CFEF782FC4FF0FF30FB
:102D7000009068020190902002900020039004903F
:102D8000012005906946206800F0F5F8002085E7ED
:102D9000FFE7022082E70000273900088538000895
:102DA0008C852542042808D14FF0E021096941F0C3
:102DB00004014FF0E022116107E04FF0E0210969C2
:102DC00021F004014FF0E0221161704770B5044614
:102DD0002546681EB0F1807F01D301200FE0681EF8
:102DE0004FF0E02148610F214FF0FF3000F0AEF8C6
:102DF00000204FF0E021886107200861002070BDAD
:102E000010B504460CB9012010BD94F83D0028B956
:102E1000002084F83C00204600F01FF8022084F8CF
:102E20003D00204601F08CF92068006920F48040C4
:102E3000216808612068406920F02A002168486103
:102E40002068C06840F400502168C86000202064F9
:102E5000012084F83D000020D6E770472DE9F843B3
:102E600004460D4616461F464FF0000994F83D00F3
:102E700001285CD105B116B90120BDE8F88300BF77
:102E800094F83C00012801D10220F6E7012084F8E3
:102E90003C0000BF00202064122084F83D00FEF7B3
:102EA000FDFE8146268566852BE0608D401E60858F
:102EB000A068B0F5805F16D14B46002280212046E5
:102EC000009701F035FA08B10320D6E7A846B8F814
:102ED0000000C0F3080021684860206908B9AD1CF3
:102EE0000FE06D1C0DE04B4600228021204600972C
:102EF00001F01EFA08B10320BFE715F8010B2168A5
:102F00004860608D0028D0D14B46002240212046E9
:102F1000009701F00DFA08B10320AEE7012084F814
:102F20003D0000BF002084F83C0000BFA5E7022060
:102F3000A3E700BFFEE700BFFEE770470248006856
:102F4000C0F30220704700000CED00E010B500282F
:102F500007DA0A07140E054A00F00F031B1FD454AA
:102F600003E00A07130E024A135410BD18ED00E0E7
:102F700000E400E0704710B5024600230868506284
:102F800048689062D1E9020420430C6920434C69EF
:102F900020430343D06A20F0F7001843D06200209A
:102FA00010BD01460869C0B270470146086800F0CC
:102FB0000300704708B502460020009002F114009B
:102FC000084400900098006808BD0FB410B504468E
:102FD0000021DDE903021043059A1043069A1043CD
:102FE000079A1043089A10430143606847F6FF624E
:102FF000904308436060002010BC5DF814FB01465C
:1030000000200860704701460320086000207047D8
:103010000146D1F88000704710B5024600230868C9
:103020009060D1E901042043CC6820430C6920431F
:103030000343D0686FF30B001843D060002010BD2D
:1030400070B586B005460C460026019437200290E4
:1030500040200390002004904FF48060059001A967
:103060002846FFF7D9FF41F288323721284600F081
:10307000EBF90646304606B070BD000070B586B06C
:1030800005460C4600260B4820430190292002905B
:1030900040200390002004904FF48060059001A927
:1030A0002846FFF7B9FF284600F0CEFA064630461C
:1030B00006B070BD0000108070B586B005460C46A5
:1030C00000260194102002904020039000200490DC
:1030D0004FF48060059001A92846FFF79DFF41F25B
:1030E00088321021284600F0AFF90646304606B077
:1030F00070BD70B586B005460C46002601940620CA
:10310000029040200390002004904FF480600590CE
:1031100001A92846FFF780FF41F2883206212846A0
:1031200000F092F90646304606B070BD30B585B065
:1031300004460025002000900190029003904FF477
:103140008060049069462046FFF766FF204600F045
:103150005BF90546284605B030BD30B585B004465C
:1031600000254FF4D5700090082001904020029077
:10317000002003904FF48060049069462046FFF7DA
:103180004BFF204600F0E0FA0546284605B030BD6A
:1031900070B586B005460C460026019412200290B8
:1031A00040200390002004904FF48060059001A916
:1031B0002846FFF731FF41F288321221284600F0FD
:1031C00043F90646304606B070BD70B586B0054678
:1031D0000C4600260194112002904020039000200C
:1031E00004904FF48060059001A92846FFF714FF72
:1031F00041F288321121284600F026F90646304671
:1032000006B070BDF0B585B0064614461D460027D1
:1032100000940720019040200290002003904FF47A
:103220008060049069463046FFF7F6FE41F288322E
:103230000721304600F008F90746384605B0F0BDD2
:1032400030B585B004460025002000900220019092
:10325000C0200290002003904FF4806004906946E3
:103260002046FFF7D9FE204600F0C0F90546284663
:1032700005B030BD70B586B005460C4600260194F9
:1032800009200290C0200390002004904FF4806039
:10329000059001A92846FFF7BFFE284600F0A6F9D1
:1032A0000646304606B070BD30B585B004460025F0
:1032B00000200090332001904020029000200390D5
:1032C0004FF48060049069462046FFF7A5FE41F266
:1032D00088323321204600F0B7F80546284605B06D
:1032E00030BD70B586B005460C46002601940D2011
:1032F000029040200390002004904FF480600590DD
:1033000001A92846FFF788FE41F288320D212846A0
:1033100000F09AF80646304606B070BD70B586B02B
:1033200005460C4600260020019003200290402014
:103330000390002004904FF48060059001A9284676
:10334000FFF76AFE22460321284600F0A5F906464B
:10335000304606B070BD000030B585B0044600258B
:10336000002000900C20019040200290002003904B
:103370004FF48060049069462046FFF74DFE044AF2
:103380000C21204600F060F80546284605B030BD07
:1033900000E1F50570B586B005460C46002601949F
:1033A0001920029040200390002004904FF4806088
:1033B000059001A92846FFF72FFE41F28832192116
:1033C000284600F041F80646304606B070BD70B59C
:1033D00086B005460C460026019418200290402035
:1033E0000390002004904FF48060059001A92846C6
:1033F000FFF712FE41F288321821284600F024F827
:103400000646304606B070BD01460E480068C0084A
:103410004FF47A73B0FBF3F041F2883300FB03F210
:1034200000BF101EA2F1010202D14FF00040704710
:10343000486B00F080000028F3D040F2FF50886312
:103440000020F4E7280000202DE9F04105460E4653
:10345000174664480068C0084FF47A71B0FBF1F079
:1034600000FB07F800BFB8F10000A8F1010803D184
:103470004FF00040BDE8F081686B00F04500002887
:10348000F1D0686B00F0040010B10420A863F1E7EC
:10349000686B00F0010010B10120A863EAE728463C
:1034A000FFF77FFDB04201D00120E3E740F2FF507B
:1034B000A86300212846FFF77DFD04464A482040C6
:1034C00008B90020D6E704F00040B0F1004F02D167
:1034D0004FF00070CEE704F08040B0F1804F01D192
:1034E0004020C7E704F00050B0F1005F01D1802018
:1034F000C0E704F08050B0F1805F02D14FF48070DB
:10350000B8E704F00060B0F1006F02D14FF4007032
:10351000B0E704F08060B0F1806F02D14FF48060BA
:10352000A8E704F08070B0F1807F02D14FF4006012
:10353000A0E704F40000B0F5000F02D14FF4805072
:1035400098E704F48000B0F5800F02D14FF40050EA
:1035500090E704F40010B0F5001F02D14FF4804052
:1035600088E704F48010B0F5801F02D14FF40040CA
:1035700080E704F48020B0F5802F02D14FF40030B2
:1035800078E704F40030B0F5003F02D14FF480201A
:1035900070E704F48030B0F5803F02D14FF4002092
:1035A00068E704F40040B0F5004F02D14FF48010FA
:1035B00060E704F48040B0F5804F02D14FF4001072
:1035C00058E704F40050B0F5005F02D14FF48000DA
:1035D00050E704F00800082801D100054AE74FF43D
:1035E000803047E72800002008E0FFFD014615482D
:1035F0000068C0084FF47A73B0FBF3F041F28833EF
:1036000000FB03F200BF101EA2F1010202D14FF035
:1036100000407047486B00F045000028F3D0486B2D
:1036200000F0040010B104208863F2E7486B00F05A
:10363000010010B101208863EBE740F2FF5088637E
:103640000020E6E728000020014612480068C00874
:103650004FF47A73B0FBF3F041F2883300FB03F2CE
:1036600000BF101EA2F1010202D14FF000407047CE
:10367000486B00F045000028F3D0486B00F00400D0
:1036800010B104208863F2E740F2FF508863002005
:10369000EDE70000280000202DE9F04104460E4629
:1036A000174628480068C0084FF47A71B0FBF1F063
:1036B00041F2883100FB01F800BFB8F10000A8F129
:1036C000010803D14FF00040BDE8F081606B00F0CD
:1036D00045000028F1D0606B00F0040010B1042018
:1036E000A063F1E7606B00F0010010B10120A0635E
:1036F000EAE72046FFF755FCB04201D00120E3E79E
:1037000040F2FF50A06300212046FFF753FC05461E
:1037100005F4604018B9280C38800020D4E705F47F
:103720008040B0F5804F02D14FF40050CCE705F453
:103730000040B0F5004F02D14FF48050C4E74FF481
:103740008030C1E728000020014614480068C00806
:103750004FF47A73B0FBF3F041F2883300FB03F2CD
:1037600000BF101EA2F1010202D14FF000407047CD
:10377000486B00F045000028F3D0486B00F00400CF
:1037800018B1402088630420F1E7486B00F0400046
:1037900008B1402088630020E9E7000028000020ED
:1037A00010B50446012007490870FCF7C3FD28B98D
:1037B0000448007820F001000249087001480078B0
:1037C00010BD00001C00002070B504460125134800
:1037D00013490860002112488160C160A90201619B
:1037E00089004161890081614FF44031016200BF6D
:1037F000E063846300BFFDF737FE0948FDF789FEEB
:103800000748FDF7BFFE0546002202213B20FEF7D8
:1038100002FB3B20FEF7F2FA284670BD58640240D6
:103820007407002070B5044614481549086040210B
:10383000134881600021C1604FF4806101618900FB
:103840004161890081614FF44031016200BF206411
:10385000846300BFFDF708FE0948FDF75AFE0848DB
:10386000FDF790FE0546002202213B20FEF7D3FA29
:103870003B20FEF7C3FA284670BD000058640240A2
:10388000D407002070B50646B46BE06B406D01288C
:1038900003D0206C406D01281ED140F2FF502168FA
:1038A00088632068C06B20F49D702168C863A06B9A
:1038B00040F08040A0632046FFF7D2F80546062D71
:1038C00001D0052D05D12068FFF746FDA16B084307
:1038D000A063012084F834002046FEF7B1FF70BDDC
:1038E00070B50546AC6B0026206B82280AD1206893
:1038F000FFF732FD06462EB1A06B3043A063204691
:10390000FEF79EFF2068C06A20F008002168C862A8
:1039100040F2FF5021688863012084F8340020467B
:10392000FFF7A6F970BD0146886B0268D26B42F4BE
:1039300080720368DA63704710B5FCF7B5FCFDF7D9
:103940003FFB012280210248FEF7A1F910BD0000D3
:103950000008024010B500220249104601F0ACF9FF
:1039600010BD0000150000202DE9F04188B004468C
:103970000E460025FEF792F98046002700200090B1
:10398000019008212068FFF797FB05461DB12846E6
:1039900008B0BDE8F0815022125B11042068FFF7E7
:1039A0004FFB05460DB12846F2E74FF0FF3002907D
:1039B00008200390302004900220059000200690FB
:1039C0000120079002A92068FFF7D5FA2068FFF7C9
:1039D0006BFC05460DB12846DAE713E02068406B22
:1039E00000F4001028B12068FFF712FB4DF8270003
:1039F0007F1CFEF753F9A0EB0800401C10B94FF0F4
:103A00000040C5E72068406B40F22A41084000288A
:103A1000E4D02068406B00F0080018B1082021684D
:103A20008863B5E72068406B00F0020018B10220FF
:103A300021688863ACE72068406B00F0200018B173
:103A4000202021688863A3E740F2FF502168886343
:103A500000980006009901F47F4140EA0120009996
:103A600001F47F0140EA1120009940EA1160706082
:103A700001980006019901F47F4140EA0120019973
:103A800001F47F0140EA1120019940EA11603060A1
:103A900000207DE710B5002280210748FEF7F7F8E7
:103AA000FDF796FA08B1012010BDFCF759FC08B1EA
:103AB0000120F9E70020F7E70008024030B58FB099
:103AC00004460025012003902068FFF76EFA18B91C
:103AD0004FF080600FB030BD606C03281BD02068B1
:103AE000FFF7AEFB05460DB12846F3E7002120683D
:103AF000FFF760FA606704212068FFF75BFAA067B0
:103B000008212068FFF756FAE0670C212068FFF7CC
:103B100051FA80210851606C032807D003A920685E
:103B2000FFF7FCFB05460DB12846D3E7606C032880
:103B300020D0BDF80C1021655022125B11042068C2
:103B4000FFF798FB05460DB12846C3E70021206822
:103B5000FFF730FA606604212068FFF72BFAA066B1
:103B600008212068FFF726FAE0660C212068FFF79D
:103B700021FA206704212068FFF71CFA010DE16497
:103B800004A92046FEF761FE5020005B01040A46AE
:103B900000232068FFF736FB05460DB1284699E75C
:103BA000D4E90412A069CDE90012029094E80F0054
:103BB000FFF70BFA00208DE710B504462068FFF7E9
:103BC0001EFA002010BDF8B5044600200090002623
:103BD000002700252068FFF7A9FA05460DB1284601
:103BE000F8BD2068FFF7B9FA05466DB30021A1645E
:103BF00025E00098411C00914FF6FF71884202D1E8
:103C00004FF08070ECE700212068FFF719FA0546B5
:103C100015B14FF08050E3E700212068FFF72EFA3E
:103C2000054615B14FF08050DAE700212068FFF714
:103C3000C1F90646012080EAD67080F00107002F06
:103C4000D7D00020606433E00121A16424E0009813
:103C5000411C00914FF6FF71884202D14FF08070F5
:103C6000BEE700212068FFF7EBF905460DB12846B5
:103C7000B6E74FF080412068FFF700FA05460DB126
:103C80002846ADE700212068FFF794F90646012099
:103C900080EAD67080F00107002FD8D006F080406F
:103CA000B0F1804F02D10120606401E00020606427
:103CB000002095E770B504460D46002615B94FF073
:103CC000006070BD5022125B11042068FFF709FBF1
:103CD00006460EB13046F4E700212068FFF76AF986
:103CE00028600020EDE77CB504460020009001909C
:103CF000002500212068FFF75DF900F00070B0F1A9
:103D0000007F02D14FF400607CBD69462046FFF77A
:103D10002BFE05460DB12846F6E7019800F48030E9
:103D200098B15022125B11042068FFF789F905460B
:103D30000DB12846E8E700212068FFF7DAF90546CB
:103D40000DB12846E0E70020DEE74FF08060DBE7BA
:103D50007CB50446002000900190002500212068D9
:103D6000FFF728F900F00070B0F1007F02D14FF4A6
:103D700000607CBD69462046FFF7F6FD05460DB1A3
:103D80002846F6E7019800F4802098B15022125B93
:103D900011042068FFF754F905460DB12846E8E7FD
:103DA00002212068FFF7A5F905460DB12846E0E796
:103DB0000020DEE74FF08060DBE7000010B504462E
:103DC0000120074908702046FFF7EAFC0449087003
:103DD000002004490860044908600148007810BDCB
:103DE0001C0000202000002024000020F0B589B035
:103DF00007460D46144601261548007800F00100DC
:103E000010B1032009B0F0BD35B1012D06D0022D4F
:103E10000BD0032D17D10FE0002616E001A8FCF708
:103E20007FFA0798206000260FE001A8FCF778FAD7
:103E300008982080002608E001A8FCF771FA08988D
:103E40002060002601E0042600BF00BF3046D9E70D
:103E50001C0000202DE9F04781460D4616461F46FE
:103E60004FF001080020184908603A4631462846BC
:103E7000FCF764FB20BBFDF711FF044600BF1248AE
:103E8000006820B9FDF70AFF001B9628F7D30E48FB
:103E9000006810B94FF0010812E000200A490860DC
:103EA000FDF7FCFE044605E0FCF744FA10B94FF0BC
:103EB000000804E0FDF7F2FE001B9628F4D300BFD3
:103EC0004046BDE8F08700002000002010B5044601
:103ED0002046FFF765FC10BD2DE9F04781460D46F1
:103EE00016461F464FF001080020184908603A4660
:103EF00031462846FCF746FB20BBFDF7CFFE0446C3
:103F000000BF1248006820B9FDF7C8FE001B9628C4
:103F1000F7D30E48006810B94FF0010812E00020F6
:103F20000A490860FDF7BAFE044605E0FCF702FA0C
:103F300010B94FF0000804E0FDF7B0FE001B962812
:103F4000F4D300BF4046BDE8F08700002400002005
:103F5000704700000CB500200190009034480068C4
:103F600040F480303249086000BF3148006800F4F6
:103F7000003000900198401C0190009810B9019801
:103F80006428F2D12A48006800F4003010B1012002
:103F9000009001E0002000900098012846D12448BC
:103FA0004030006840F0805021494031086021488D
:103FB000006840F480401F4908601D4808300068D0
:103FC0001B49083108600846006840F4004008605A
:103FD0000846006840F4A05008601748091F0860B0
:103FE000081F006840F08070091F086000BF10487B
:103FF000006800F000700028F9D040F205700F4909
:1040000008600B480830006820F0030008490831B8
:1040100008600846006840F00200086000BF0448DD
:104020000830006800F00C000828F8D10CBD000032
:10403000003802400070004008544007003C024035
:1040400010B5FDF731FE10BD10B592B001200690FD
:1040500002200C9041050D9108210E914FF4A8719A
:104060000F910221109107211191C00307900120A7
:10407000069006A8FEF758F908B1FCF795FF0F2047
:10408000019002200290002003904FF4A050049071
:104090004FF400400590042101A8FDF74BFF08B143
:1040A000FCF782FF4FF48040FDF708FF08B1FCF7F2
:1040B0007BFFFEF7BBF84FF47A71B0FBF1F42046BA
:1040C000FEF784FE0420FEF76DFE00221146501E0E
:1040D000FDF7A1FE12B010BD10B51548006840F400
:1040E0007000134908601348006840F0010011494E
:1040F000086000200F49083108600E4800680E492A
:1041000008400C4908600D48091D0860081F006838
:1041100020F48020091F0860002006490C31086047
:10412000FFF718FF4FF0006001498039086010BDAB
:1041300088ED00E000380240FFFFF6FE103000245A
:104140002DE9F041044600252068C06820F00C00ED
:104150002168C8602068056925F47C55A06940F491
:104160000060E1690843216A0843E16808430543A8
:10417000206805612068C56849F20C6085432169A3
:10418000A06808436169084340F400400543206883
:10419000C5602068406920F4407021684861624928
:1041A0002068884203D06149206888425DD1FEF7CB
:1041B00053F800EBC00101EB001061684900B0FB4F
:1041C000F1F06421B0FBF1F00601FEF745F800EBD9
:1041D000C00101EB001061684900B0FBF1F7FEF788
:1041E0003BF800EBC00101EB001061684900B0FB37
:1041F000F1F06421B0FBF1F000EBC00101EB001025
:10420000A7EB8000322101EBC0006421B0FBF1F08C
:1042100000F0F80006EB4006FEF71EF800EBC001C8
:1042200001EB001061684900B0FBF1F7FEF714F8EC
:1042300000EBC00101EB001061684900B0FBF1F038
:104240006421B0FBF1F000EBC00101EB0010A7EB23
:104250008000322101EBC0006421B0FBF1F000F0DE
:1042600007003044216888605CE0FDF7E5FF00EB63
:10427000C00101EB001061684900B0FBF1F064215E
:10428000B0FBF1F00601FDF7D7FF00EBC00101EB39
:10429000001061684900B0FBF1F7FDF7CDFF00EBBE
:1042A000C00101EB001061684900B0FBF1F064212E
:1042B000B0FBF1F000EBC00101EB0010A7EB8000B8
:1042C000322101EBC0006421B0FBF1F000F0F800F6
:1042D00006EB4006FDF7B0FF00EBC00101EB00105C
:1042E00061684900B0FBF1F7FDF7A6FF00EBC001E4
:1042F00001EB001061684900B0FBF1F06421B0FBF4
:10430000F1F000EBC00101EB0010A7EB80003221BF
:1043100001EBC0006421B0FBF1F000F00700304475
:1043200021688860BDE8F081001001400014014060
:104330002DE9F04104460D4617469846069E2BE0AF
:10434000701C48B32EB1FDF7A9FCA0EB0800B042E9
:1043500022D92068C06820F080002168C8602068E9
:10436000C06820F020002168C8602068C06820F480
:1043700080702168C8602068406920F001002168D1
:104380004861012084F83D0000BF002084F83C0013
:1043900000BF0320BDE8F081206800682840A842E3
:1043A00001D1012000E00020B842C9D00020F1E78F
:1043B00000BFFEE70FB4054B10B503A9044A0298ED
:1043C00000F02CF810BC5DF814FB00000D53000841
:1043D0002C0000200FB4084B10B504A902AA0398C2
:1043E00000F01CF8044602A9002000F02DF9204638
:1043F00010BC5DF814FB00004946000802E008C844
:10440000121F08C1002AFAD170477047002001E04E
:1044100001C1121F002AFBD1704700002DE9FF4F98
:104420008BB09A460F460446002606E025280BD09E
:1044300052460D999047641C761C20780028F5D1CF
:104440000FB03046BDE8F08F0025A94601227D4916
:1044500000E0054314F8013F203B02FA03F0084254
:10446000F7D120782E2817D114F8010F45F0040554
:104470002A280ED06FF02F022078A0F130010929F0
:104480000AD809EB890102EB410100EB0109641C28
:10449000F2E757F8049B641C20786C280DD004DCEC
:1044A0004C2812D06A2811D104E074280DD07A2843
:1044B0000CD10AE045F4001507E0617845F4801559
:1044C000814202D1641C05F58015641C207869289E
:1044D0003ED006DC0028B3D063280BD0642804D17A
:1044E00036E0732810D075285CD052460D9990475D
:1044F000761CA5E017F8040B8DF8000000208DF85D
:104500000100E846012003E057F8048B4FF0FF302C
:1045100069074FF0000501D40AE06D1C4D450DDA26
:104520008542FADB18F805100029F6D106E06D1C6B
:104530008542FCDB18F805100029F8D12E4404E070
:1045400018F8010B52460D9990476D1EF8D277E08E
:1045500000200A90C5F302504FF00A0B02280CD03D
:1045600001CFC117021E71F100020CDA0023D0EB5B
:10457000030063EB01012D2208E0FF1D27F0070770
:10458000F7E80201EEE72A0504D52B228DF8242056
:10459000012203E0EA070FD02022F7E70DF12008FF
:1045A000089218E000200A90C5F302504FF00A0B61
:1045B000022803D001CF00210022EFE7FF1D27F0E2
:1045C0000707F7E80201F7E75A460A9BFBF7F8FDF1
:1045D000303208F8012D50EA0102F5D1ADEB0800A8
:1045E00000F1200B680701D44FF00109D94502DD25
:1045F000A9EB0B0000E000208146002506E009A899
:104600005246405D0D9990476D1C761C0898854276
:10461000F5DB04E0302052460D999047761CB9F145
:104620000001A9F10109F5DC05E018F8010B52467B
:104630000D999047761CBBF10001ABF1010BF4DC46
:10464000641CFAE6092801000A68531C0B6010700C
:104650007047000070B504460D460020E070401E13
:10466000A0622946204601F0B5F808B1042070BDCB
:1046700004F22A2000F00DFF4AF65521884201D0AD
:104680000320F4E794F82C00E92807D094F82C00D4
:10469000EB2817D12E20005D902813D104F1620081
:1046A00000F0EBFE20F07F400749884201D1002056
:1046B000DDE704F17E0000F0E0FE0449884201D10C
:1046C0000020D4E70220D2E746415400464154334B
:1046D000024600E0521C107810B110788842F9D1DF
:1046E00010787047F0B503460D461E68186A021D23
:1046F000680A7789B0FBF7F400BF02CA09B9002045
:10470000F0BD8C4200D202E0641A121DF5E700BF32
:1047100010682044F4E70246891E1069801E884212
:1047200001D8002070475389506A01FB0300F9E764
:104730002DE9F04780460C4604F11A0000F0A9FE6E
:1047400010B10020BDE8F087207800F03F00401E47
:1047500000EB800101EBC0054FF00109002621E0CC
:104760001849895D081900F094FE0746B9F1000F59
:1047700011D0FF2D0BD2384600F0E6FB82462946C9
:104780006D1C38F8110000F0DFFB824501D00020DD
:10479000D8E7B94605E04FF6FF70874201D0002008
:1047A000D0E7761C0D2EDBD3207800F0400038B126
:1047B000B9F1000F04D038F8150008B10020C1E7A6
:1047C0000120BFE7F45800082DE9F34F83B081467C
:1047D000049800680190D9F80000D0F80CA00020DF
:1047E0000546064600BF3046761C01990C5C202C1D
:1047F00000DA2BE02F2C01D05C2C0AD100E0761CD3
:104800000198805D2F28FAD00198805D5C28F6D051
:104810001CE0FF2D03D3062005B0BDE8F08FE4B205
:104820000121204600F06AFB04460CB90620F3E79C
:10483000802C06DA21466AA0FFF74AFF08B106205D
:10484000EAE728466D1C2AF81040CCE700BF019823
:10485000811904980160202C01DA042000E0002076
:10486000074608E0681E3AF81040202C02D02E2C93
:1048700000D002E06D1E002DF4D100BF00202AF808
:1048800015000DB90620C7E70B22202109F12000F1
:1048900000F097FF002600E0761C3AF8160020286A
:1048A000FAD03AF816002E28F6D00EB147F00307DA
:1048B00000E06D1E25B1681E3AF810002E28F8D1D0
:1048C0004FF00008CDF808804FF0080B00BF3046CD
:1048D000761C3AF8104004B954E0202C03D02E2C5A
:1048E00004D1AE4202D047F00307F0E702985845E2
:1048F00001D2AE4216D1BBF10B0F02D147F0030734
:1049000040E0AE4201D047F00307AE4200D939E0A3
:104910002E46082002904FF00B0B4FEA88604FEABA
:104920001068D4E7802C0BDB0021204600F0E6FA6B
:1049300004461CB1A4F180002C490C5C47F002072E
:1049400000BF24B121462AA0FFF7C2FE18B15F24A0
:1049500047F003070FE0412C04DB5A2C02DC48F03F
:10496000020808E0612C06DB7A2C04DC48F0010820
:10497000A4F1200084B20298411C029109F12001A7
:104980000C54A4E700BF99F82000E52802D10520C7
:1049900089F82000BBF1080F03D14FEA88604FEA85
:1049A000106808F00C000C2803D008F0030003285E
:1049B00001D147F0020707F0020058B908F00300E0
:1049C000012801D147F0100708F00C00042801D19C
:1049D00047F008072B2000F8097000201CE70000B2
:1049E000222A3A3C3E3F7C7F0000000074580008B9
:1049F0002B2C3B3D5B5D00002DE9F0470446D4F8CD
:104A000000A00021204600F0C2F8064616B130464C
:104A1000BDE8F0874FF0FF08C1464FF0FF30E0627D
:104A200000BF5046A16900F0D5FE064606B15EE023
:104A3000E06905780DB9042659E0E069C07A00F014
:104A40003F07A771E52D04D007F0080038B10F2FFC
:104A500005D04FF0FF084FF0FF30E06240E00F2F2D
:104A600022D12B20005D00F0400098BB05F04000F3
:104A700038B1E06990F80D9005F0BF05A8462069AF
:104A8000E06245450CD1E069407B484508D1E169C9
:104A9000DAF80C00FFF74CFE10B1A8F1010000E0BD
:104AA000FF2000F0FF081BE0B8F1000F05D1E0691E
:104AB00000F0B2FE484500D119E02B20005D00F067
:104AC000010040B90B2204F12001E06900F05AFE18
:104AD00008B90CE004E04FF0FF084FF0FF30E0624F
:104AE0000021204600F006F80646002E99D000BFAF
:104AF00030468DE72DE9F041044688462768206955
:104B000000F12006A06910B1B6F5001F02D3042001
:104B1000BDE8F081C6F3080080BBA069401CA0611D
:104B2000606938B93889B0EB561F27D80020A061DA
:104B30000420EDE77889401E00EA5620F0B92046AF
:104B4000616900F0F3FB0546012D01D80220DFE783
:104B5000681C08B90120DBE73869A84208D8B8F119
:104B6000000F01D10020A0610020A0610420CFE748
:104B7000656129463846FFF7CEFDA0612661C6F380
:104B8000080107F12C000844E0610020C0E72DE98E
:104B9000F04104460D462668B5F5001F02D205F027
:104BA0001F0010B10220BDE8F0812561A7681FB980
:104BB0003078032800DB376A47B93089B0EB551FDE
:104BC00001D80220EFE7306AA0611CE070894FEA4B
:104BD000402811E03946204600F0A8FB0746781C23
:104BE00008B90120DFE7022F02D33069B84201D8AB
:104BF0000220D8E7A5EB08054545EBD239463046FB
:104C0000FFF789FDA0616761A06908B90220CAE7C2
:104C1000A06900EB5520A061C5F3080106F12C0046
:104C20000844E0610020BEE770B50446002508484E
:104C3000005D58B901200649085501F10802105DD0
:104C40000A1D52F82420116888470546284670BD81
:104C5000300200202DE9F04104460D4616461F465D
:104C60000749085D091F51F824103B463246D1F828
:104C700008C02946E04780464046BDE8F081000074
:104C80003802002070B50446044A105D121F52F825
:104C90002420516888470546284670BD3802002008
:104CA00038B504466946204600F0C6FD05460DB9F4
:104CB00000202060284638BDF7B582B0164603981C
:104CC000019001A800F0A2FB0546002D02DA0B209E
:104CD00005B0F0BD0E4850F825400CB10020207002
:104CE000029810B10020029908700949029841F811
:104CF0002500029808B1012E01D00020E8E700222B
:104D000002A903A800F072F907463846E0E7000060
:104D10000000002077B58DB00446164614B909206E
:104D200010B070BD06F00106324669460EA800F0CC
:104D30005DF9054665BB0098019001A80E9900F049
:104D400093FA054665B99DF82F0000F0800008B180
:104D5000062505E09DF80A0000F0100000B10425CA
:104D6000B5B90899009800F075FBA060089901F1A9
:104D70001C0000F082FBE0600020206200982060B0
:104D80000098C088A080267400206074E061606193
:104D90000DB1002020602846C2E72DE9FF4F85B005
:104DA000044615469946069801900020C9F800006F
:104DB00003A9204600F040FD0490049810B9607CDF
:104DC000049018B1049809B0BDE8F08F207C00F081
:104DD000010008B90720F6E76169E068401A02900F
:104DE0000298854200D9029D83E0A08AC0F30800A2
:104DF00000285FD103984089401E616900EA51286C
:104E0000B8F1000F1FD1606910B9D4F808B00CE0F8
:104E1000206A28B120466169FFF764FC834604E0FC
:104E20002046A16900F082FA8346BBF1020F02D24C
:104E300002206074C7E70BF1010010B90120607413
:104E4000C1E7C4F818B0A1690398FFF764FC0746EE
:104E500017B902206074B6E747444FEA552ABAF101
:104E6000000F17D008EB0A0003994989884203D93B
:104E700003984089A0EB080A0399487853463A46BC
:104E80000199FFF7E7FE10B1012060749BE74FEA3C
:104E90004A2622E0E069B8420BD003994878012302
:104EA0003A4604F12401FFF7D5FE10B101206074E9
:104EB00089E7E761A08AC0F30800C0F50076AE423A
:104EC00000D92E46A08AC0F3080204F1240011186C
:104ED0003246019800F068FC00BF01983044019010
:104EE000606930446061D9F800003044C9F80000BE
:104EF000AD1B002D7FF479AF002064E710B50246AA
:104F0000802A01DA10461BE051B1FF2A01DD00239F
:104F100004E0A2F180030B4C34F8133018460FE084
:104F2000002007E0074B33F81030934200D103E034
:104F3000431C98B28028F5DB00BF00F18003D8B293
:104F400010BD00000259000830B5B0F5805F01DAED
:104F5000244D00E0244D294600BF31F8022B0AB150
:104F6000904200DA3CE031F8023B1C12DBB2D5186B
:104F7000854230DD092C2CD2DFE804F005090F133F
:104F8000171B1F232700851A31F8150021E0851A09
:104F900005F00105451BA8B21BE0A0F11005A8B261
:104FA00017E0A0F12005A8B213E0A0F13005A8B2E7
:104FB0000FE0A0F11A05A8B20BE000F10805A8B2B5
:104FC00007E0A0F15005A8B203E0A0F5E355A8B2B0
:104FD00000BF00BF04E0002CBFD101EB4301BCE7E0
:104FE00000BF30BD025A0008F45B00082DE9F74FFE
:104FF0008AB000210B9801600A9800F007FA089027
:105000000898002803DA0B200DB0BDE8F08F934913
:10501000089851F820400CB90C20F5E70B98046073
:105020000C9800F0FE000C90207850B16078FFF7EB
:1050300029FE0790079800F0010010B900BF00207A
:10504000E2E700202070089860706078FFF7ECFDC0
:105050000790079800F0010008B10320D4E700BFD3
:105060004FF0000841462046FFF7F4FA0546022DAE
:1050700001D030DA2FE0002614E04FF4DF7000EBAF
:10508000061104F12C00084409900998007920B118
:105090000998083000F0F1F900E0002001A941F87A
:1050A0002600761C042EE8D3002606B1761E00BF2B
:1050B00001A850F82680B8F1000F04D041462046E0
:1050C000FFF7C8FA00E003200546022D03DB701C41
:1050D00006460428ECD3042D01D1012094E7022DCB
:1050E00001DB0D2090E704F1370000F0D2F9B0F5B4
:1050F000007F01D00D2087E704F1420000F0C9F9DC
:10510000074627B904F1500000F0B7F90746676178
:105110003C20005DA070A078012804D0A07802286F
:1051200001D00D2070E7A07847433920005D6081F1
:10513000608918B16089411E084008B10D2063E7FD
:1051400004F13D0000F0A5F92081207A00F00F0065
:1051500008B10D2058E704F13F0000F09AF98146AC
:10516000B9F1000F04D104F14C0000F086F981463A
:1051700004F13A0000F08DF98346BBF1000F01D134
:105180000D2041E70BEB0700218900EB1110069081
:105190000698814501D20D2036E70698A9EB00005C
:1051A0006189B0FBF1FABAF1000F01D10D202BE7B4
:1051B00003254FF6F570824500D8022540F6F570BC
:1051C000824500D801250AF102002061C4F8188048
:1051D00008EB0B00E061069840446062032D13D198
:1051E00004F1560000F055F908B10D200CE72089B4
:1051F00008B10D2008E704F1580000F03EF92062E4
:1052000020698000059014E0208908B90D20FBE694
:10521000E06938442062022D02D12069400007E095
:10522000207C00F00100216901EB410100EB5100FD
:1052300005906169059800F2FF10B1EB502F01D283
:105240000D20E1E6257006480088401C80B2044924
:105250000880E0800348E0600020D5E600000020E0
:1052600004000020300000202DE9F34104462646CA
:10527000D6F8008002E00198401C01900198007867
:105280002F28F8D0019800785C28F4D00020B06076
:1052900001980078202808D280212B200155002178
:1052A0002046FFF774FC05462CE000BF01A920460C
:1052B000FFF78AFA054605B123E02046FFF79CFB7D
:1052C00005462B20075D3DB1042D04D100BF07F03A
:1052D000040000B9052514E007F0040000B110E057
:1052E000B07900F0100008B905250AE0208AC0F363
:1052F000080208F12C001118404600F0ABF8B0602D
:10530000D4E700BF2846BDE8FC81000038B504465C
:105310000D46E0B200900025642301226946024850
:10532000FDF79CFD204638BDAC0600202DE9F04776
:1053300081460C46D9F80050022C02D32869A042BD
:1053400002D84FF001085EE04FF0FF3828780128BE
:1053500004D002282CD0032851D13CE0264606EB8D
:105360005606E86900EB5621284600F033FA00B1F2
:1053700048E03046761CC0F3080105F12C00475C7C
:10538000E86900EB5621284600F024FA00B139E024
:10539000C6F3080105F12C00405C47EA002704F041
:1053A000010008B1380901E0C7F30B00804629E08D
:1053B000E86900EB1421284600F00CFA00B121E066
:1053C00040F2FF1101EA440205F12C01501800F0EF
:1053D00060F8804616E0E86900EBD411284600F03A
:1053E000F9F900B10EE040F2FF1101EA840205F183
:1053F0002C01501800F041F820F0704802E04FF006
:10540000010800BF00BF4046BDE8F08770B5024606
:105410004FF0FF301568DDB1116800E0491C0D78D0
:10542000202D02D30D783A2DF8D10D783A2D0ED1DA
:10543000146814F8015BA5F130030A2B06D28C42E4
:1054400004D11BB918464D1C2946156070BD0020BB
:1054500000BFFBE770B505460C4604F11A0000F0EA
:1054600018F806462878032805D104F1140000F046
:1054700010F846EA0046304670BD0146C8788A7882
:1054800042EA00204A7842EA00200A7842EA0020F4
:105490007047014648780A7842EA002070470000C9
:1054A000FCF70EFCFBF774FFFBF7BAF900BF012213
:1054B00040217E48FCF7EBFB012220217B48FCF7D2
:1054C000E6FB012210217948FCF7E1FB00BF78A040
:1054D00000F096F94FF4FA70FCF73CF900BF002297
:1054E00040217248FCF7D3FB002220216F48FCF7D3
:1054F000CEFB002210216D48FCF7C9FB00BF5BE02A
:10550000724800780A2802D171A000F079F96F483A
:105510000078282802D177A000F072F96B48007853
:105520000A2810DA00BF012240216048FCF7AFFBD7
:10553000012220215D48FCF7AAFB012210215B48D3
:10554000FCF7A5FB30E0614800780A2810D100BFC5
:10555000002240215548FCF79AFB002220215348A5
:10556000FCF795FB002210215048FCF790FB1BE054
:1055700056480078282804DA40214C48FCF77EFB86
:1055800012E05248007828280AD1002240214748DA
:10559000FCF77DFB012220214448FCF778FB03E067
:1055A00020214248FCF76AFB48480078401C4749E4
:1055B00008706420FCF7CEF84FF480713B48FCF78C
:1055C00055FB08B9012000E0002018B13F480078E1
:1055D0005A2895DB00BF002240213448FCF757FBD6
:1055E000002220213148FCF752FB002210212F48D5
:1055F000FCF74DFB00BF354800785A2816DA3348CF
:105600000078282809DD45A000F0FAF84FF47A70F8
:10561000FCF7A0F8FBF7CAF808E02C4800780A2845
:1056200004DD45A000F0ECF8FBF7DCF9FAF7C8FF61
:10563000B0B947A000F0E4F8012240211B48FCF774
:1056400026FB4FF47A70FCF785F8002240211748BA
:10565000FCF71DFBFEF770F9FBF772FEFBF78AF80B
:1056600041A000F0CDF820E0012210210F48FCF706
:105670000EFB9620FCF76EF8002210210B48FCF779
:1056800006FB9620FCF766F8012210210748FCF77C
:10569000FEFA9620FCF75EF8002210210348FCF782
:1056A000F6FA40F21A40FCF755F8DDE70004024034
:1056B0000A506F7765722075702C20426F6F7420CE
:1056C000737461727465642E00000000190000207C
:1056D00052656C6561736520627574746F6E2074B9
:1056E0006F20656E74657220426F6F746C6F6164B9
:1056F00065722E0052656C65617365206275747405
:105700006F6E20746F20656E7465722053797374A8
:10571000656D204D656D6F72792E0000456E746564
:1057200072696E672053797374656D204D656D6F76
:1057300072792E2E2E000000456E746572696E67B8
:1057400020426F6F746C6F616465722E2E2E0000A4
:105750004C61756E6368696E67204170706C696337
:105760006174696F6E2E00004E6F206170706C69FD
:10577000636174696F6E20696E20666C6173682E58
:1057800000000000F0B503461D460C46002000BF97
:1057900015F8017B14F801CBA7EB0C00561E321E46
:1057A00001D00028F4D0F0BD30B503460C463AB124
:1057B00000BF14F8015B03F8015B551E2A1EF8D1E7
:1057C00030BD10B5034600BF03F8011B541E221E56
:1057D000FAD110BD70B504460D460026A06AA84255
:1057E0000BD056B9607801232A4604F12C01FFF74B
:1057F00031FA08B1751E0126A562304670BD000061
:1058000010B50446214602A0FEF7D4FD10BD0000ED
:1058100025730D0A0000000030B5014600200B2260
:1058200000BF431003EBC01411F8015B6319D8B239
:10583000531E1A1EF5D130BD70B504460D4684B115
:10584000206870B12068007858B12068C088A188AD
:10585000884206D121684878FFF714FA00F0010069
:1058600018B100202860092602E020682860002680
:10587000304670BD809A45418E418F8045454549EF
:1058800049498E8F9092924F994F555559999A9BAD
:105890009C9D9E9F41494F55A5A5A6A7A8A9AAAB27
:1058A000ACADAEAFB0B1B2B3B4B5B6B7B8B9BABBC0
:1058B000BCBDBEBFC0C1C2C3C4C5C6C7C8C9CACBB0
:1058C000CCCDCECFD0D1D2D3D4D5D6D7D8D9DADBA0
:1058D000DCDDDEDFE0E1E2E3E4E5E6E7E8E9EAEB90
:1058E000ECEDEEEFF0F1F2F3F4F5F6F7F8F9FAFB80
:1058F000FCFDFEFF01030507090E10121416181C0B
:105900001E00C700FC00E900E200E400E000E50042
:10591000E700EA00EB00E800EF00EE00EC00C40056
:10592000C500C900E600C600F400F600F200FB0066
:10593000F900FF00D600DC00A200A300A500A7200C
:105940009201E100ED00F300FA00F100D100AA009D
:10595000BA00BF001023AC00BD00BC00A100AB002A
:10596000BB009125922593250225242561256225DA
:10597000562555256325512557255D255C255B2535
:105980001025142534252C251C2500253C255E25B5
:105990005F255A25542569256625602550256C25E7
:1059A00067256825642565255925582552255325E1
:1059B0006B256A2518250C25882584258C2590259E
:1059C0008025B103DF009303C003A303C303B50025
:1059D000C403A6039803A903B4031E22C603B50398
:1059E00029226122B1006522642220232123F700AD
:1059F0004822B0001922B7001A227F20B200A02549
:105A0000A00061001A03E0001703F8000703FF007D
:105A10000100780100013001320106013901100155
:105A20004A012E017901060180014D0043028101E6
:105A30008201820184018401860187018701890135
:105A40008A018B018B018D018E018F0190019101E3
:105A5000910193019401F601960197019801980133
:105A60003D029B019C019D0120029F01A001A0011C
:105A7000A201A201A401A401A601A701A701A901F5
:105A8000AA01AB01AC01AC01AE01AF01AF01B101A4
:105A9000B201B301B301B501B501B701B801B80155
:105AA000BA01BB01BC01BC01BE01F701C001C101CB
:105AB000C201C301C401C501C401C701C801C701B6
:105AC000CA01CB01CA01CD011001DD0101008E0127
:105AD000DE011201F3010300F101F401F401F80108
